{"abi":[{"type":"constructor","inputs":[{"name":"_treasury","type":"address","internalType":"address"}],"stateMutability":"nonpayable"},{"type":"function","name":"payAndSplit","inputs":[{"name":"token","type":"address","internalType":"contract IERC20"},{"name":"listener","type":"address","internalType":"address"},{"name":"amount","type":"uint256","internalType":"uint256"},{"name":"extensionTimeSeconds","type":"uint256","internalType":"uint256"}],"outputs":[],"stateMutability":"nonpayable"},{"type":"function","name":"treasury","inputs":[],"outputs":[{"name":"","type":"address","internalType":"address"}],"stateMutability":"view"},{"type":"event","name":"PaymentProcessed","inputs":[{"name":"payer","type":"address","indexed":true,"internalType":"address"},{"name":"listener","type":"address","indexed":true,"internalType":"address"},{"name":"amount","type":"uint256","indexed":false,"internalType":"uint256"},{"name":"extensionTimeSeconds","type":"uint256","indexed":false,"internalType":"uint256"}],"anonymous":false},{"type":"error","name":"ReentrancyGuardReentrantCall","inputs":[]},{"type":"error","name":"SafeERC20FailedOperation","inputs":[{"name":"token","type":"address","internalType":"address"}]}],"bytecode":{"object":"0x60a0346100bf57601f61041b38819003918201601f19168301916001600160401b038311848410176100c3578084926020946040528339810103126100bf57516001600160a01b0381168082036100bf5760015f551561007a5760805260405161034390816100d8823960805181818160e201526102030152f35b60405162461bcd60e51b815260206004820152601f60248201527f54726561737572792063616e6e6f74206265207a65726f2061646472657373006044820152606490fd5b5f80fd5b634e487b7160e01b5f52604160045260245ffdfe6080806040526004361015610012575f80fd5b5f3560e01c90816361d027b3146101f1575063bc4ea43114610032575f80fd5b346101ed5760803660031901126101ed576004356001600160a01b03811681036101ed576024356001600160a01b038116918282036101ed576044359160025f54146101de5760025f55821561019a578315610155576100c26040516323b872dd60e01b6020820152336024820152306044820152846064820152606481526100bc608482610232565b836102aa565b8260011c918284039184831161014157610107936100e09183610268565b7f000000000000000000000000000000000000000000000000000000000000000090610268565b60405190815260643560208201527fa6c1325e03b867ee45303c64111dc7e52670f1da44597390374b5210cda6508d60403392a360015f55005b634e487b7160e01b5f52601160045260245ffd5b60405162461bcd60e51b815260206004820152601f60248201527f4c697374656e65722063616e6e6f74206265207a65726f2061646472657373006044820152606490fd5b606460405162461bcd60e51b815260206004820152602060248201527f416d6f756e74206d7573742062652067726561746572207468616e207a65726f6044820152fd5b633ee5aeb560e01b5f5260045ffd5b5f80fd5b346101ed575f3660031901126101ed577f00000000000000000000000000000000000000000000000000000000000000006001600160a01b03168152602090f35b90601f8019910116810190811067ffffffffffffffff82111761025457604052565b634e487b7160e01b5f52604160045260245ffd5b60405163a9059cbb60e01b60208201526001600160a01b0390921660248301526044808301939093529181526102a8916102a3606483610232565b6102aa565b565b905f602091828151910182855af115610302575f513d6102f957506001600160a01b0381163b155b6102d95750565b635274afe760e01b5f9081526001600160a01b0391909116600452602490fd5b600114156102d2565b6040513d5f823e3d90fdfea26469706673582212202836d32abe58537cbce940870aac6690ac4dd2e08a41a65f8dcfa92c9382c58164736f6c634300081e0033","linkReferences":{}},"methodIdentifiers":{"payAndSplit(address,address,uint256,uint256)":"bc4ea431","treasury()":"61d027b3"},"id":34}